{
	"data": {
		"bytecode": {
			"linkReferences": {},
			"object": "60806040526004805463ffffffff1916620f424017905534801561002257600080fd5b50600080546001600160a01b03191633179055610c86806100446000396000f3fe608060405234801561001057600080fd5b50600436106100a95760003560e01c80636817031b116100715780636817031b1461017c5780638da5cb5b1461018f578063b53a334f146101ba578063b5bf1a39146101cd578063dd4ca133146101e0578063fbfa77cf1461023f57600080fd5b80631f852ef6146100ae57806337c77a151461010d57806339a1ab501461012e5780634718fec9146101435780634c0b305b14610156575b600080fd5b6100c16100bc366004610a68565b610252565b604051610104919081516001600160a01b039081168252602080840151821690830152604080840151821690830152606092830151169181019190915260800190565b60405180910390f35b61012061011b366004610b11565b6102f5565b604051908152602001610104565b61014161013c366004610a46565b610361565b005b610141610151366004610acc565b6103f0565b60025461016a90600160a01b900460ff1681565b60405160ff9091168152602001610104565b61014161018a366004610a46565b610681565b6000546101a2906001600160a01b031681565b6040516001600160a01b039091168152602001610104565b6101416101c8366004610a85565b610707565b6001546101a2906001600160a01b031681565b6101f36101ee366004610a68565b61096e565b6040516101049190600060c082019050825182526020830151602083015260408301516040830152606083015160608301526080830151608083015260a083015160a083015292915050565b6002546101a2906001600160a01b031681565b6040805160808101825260008082526020820181905291810182905260608101919091526005600083600381111561028c5761028c610c2a565b600381111561029d5761029d610c2a565b81526020808201929092526040908101600020815160808101835281546001600160a01b0390811682526001830154811694820194909452600282015484169281019290925260030154909116606082015292915050565b600454608082015160a083015160408401516020850151855160009563ffffffff1694939260039290916103299190610bc6565b6103339190610bc6565b61033d9190610bec565b6103479190610bc6565b6103519190610bc6565b61035b9190610c00565b92915050565b6000546001600160a01b031633146103945760405162461bcd60e51b815260040161038b90610b99565b60405180910390fd5b6001546040516001600160a01b038084169216907fe78457e126abddd8e6c2133b10b1142d9dd87d0be90778d310e1ec34de516c8190600090a3600180546001600160a01b0319166001600160a01b0392909216919091179055565b6000546001600160a01b0316331461041a5760405162461bcd60e51b815260040161038b90610b99565b600082600581111561042e5761042e610c2a565b141561047257806006600085600381111561044b5761044b610c2a565b600381111561045c5761045c610c2a565b8152602081019190915260400160002055505050565b600182600581111561048657610486610c2a565b14156104cd5780600660008560038111156104a3576104a3610c2a565b60038111156104b4576104b4610c2a565b8152602081019190915260400160002060010155505050565b60028260058111156104e1576104e1610c2a565b14156105285780600660008560038111156104fe576104fe610c2a565b600381111561050f5761050f610c2a565b8152602081019190915260400160002060020155505050565b600382600581111561053c5761053c610c2a565b141561058357806006600085600381111561055957610559610c2a565b600381111561056a5761056a610c2a565b8152602081019190915260400160002060030155505050565b600482600581111561059757610597610c2a565b14156105de5780600660008560038111156105b4576105b4610c2a565b60038111156105c5576105c5610c2a565b8152602081019190915260400160002060040155505050565b60058260058111156105f2576105f2610c2a565b141561063957806006600085600381111561060f5761060f610c2a565b600381111561062057610620610c2a565b8152602081019190915260400160002060050155505050565b60405162461bcd60e51b815260206004820152601b60248201527f536b696c6c206973204e6f742059657420537570706f72746564210000000000604482015260640161038b565b6000546001600160a01b031633146106ab5760405162461bcd60e51b815260040161038b90610b99565b6002546040516001600160a01b038084169216907f8800deb8c31293b539eaf5391fcc88280dc58f015c043d65dd5b72a0979a1dd190600090a3600280546001600160a01b0319166001600160a01b0392909216919091179055565b6000546001600160a01b031633146107315760405162461bcd60e51b815260040161038b90610b99565b600082600381111561074557610745610c2a565b14156107a657806005600085600381111561076257610762610c2a565b600381111561077357610773610c2a565b8152602081019190915260400160002080546001600160a01b0319166001600160a01b0392909216919091179055505050565b60018260038111156107ba576107ba610c2a565b14156108225780600560008560038111156107d7576107d7610c2a565b60038111156107e8576107e8610c2a565b815260200190815260200160002060010160006101000a8154816001600160a01b0302191690836001600160a01b03160217905550505050565b600282600381111561083657610836610c2a565b141561089e57806005600085600381111561085357610853610c2a565b600381111561086457610864610c2a565b815260200190815260200160002060020160006101000a8154816001600160a01b0302191690836001600160a01b03160217905550505050565b60038260038111156108b2576108b2610c2a565b141561091a5780600560008560038111156108cf576108cf610c2a565b60038111156108e0576108e0610c2a565b815260200190815260200160002060030160006101000a8154816001600160a01b0302191690836001600160a01b03160217905550505050565b60405162461bcd60e51b8152602060048201526024808201527f45717569706d656e7420536c6f74206973204e6f742059657420537570706f726044820152637465642160e01b606482015260840161038b565b6109a76040518060c001604052806000815260200160008152602001600081526020016000815260200160008152602001600081525090565b600660008360038111156109bd576109bd610c2a565b60038111156109ce576109ce610c2a565b81526020019081526020016000206040518060c001604052908160008201548152602001600182015481526020016002820154815260200160038201548152602001600482015481526020016005820154815250509050919050565b80356001600160a01b0381168114610a4157600080fd5b919050565b600060208284031215610a5857600080fd5b610a6182610a2a565b9392505050565b600060208284031215610a7a57600080fd5b8135610a6181610c40565b600080600060608486031215610a9a57600080fd5b8335610aa581610c40565b92506020840135610ab581610c40565b9150610ac360408501610a2a565b90509250925092565b600080600060608486031215610ae157600080fd5b8335610aec81610c40565b9250602084013560068110610b0057600080fd5b929592945050506040919091013590565b600060c08284031215610b2357600080fd5b60405160c0810181811067ffffffffffffffff82111715610b5457634e487b7160e01b600052604160045260246000fd5b8060405250823581526020830135602082015260408301356040820152606083013560608201526080830135608082015260a083013560a08201528091505092915050565b60208082526013908201527221b0b63632b91034b9903737ba1037bbb732b960691b604082015260600190565b60008219821115610be757634e487b7160e01b600052601160045260246000fd5b500190565b600082610bfb57610bfb610c14565b500490565b600082610c0f57610c0f610c14565b500690565b634e487b7160e01b600052601260045260246000fd5b634e487b7160e01b600052602160045260246000fd5b60048110610c4d57600080fd5b5056fea26469706673582212201584312ac2b2f1c6366efcac5e726c3571c6704a4f37ea58f855d4ef6560b18764736f6c63430008070033",
			"opcodes": "PUSH1 0x80 PUSH1 0x40 MSTORE PUSH1 0x4 DUP1 SLOAD PUSH4 0xFFFFFFFF NOT AND PUSH3 0xF4240 OR SWAP1 SSTORE CALLVALUE DUP1 ISZERO PUSH2 0x22 JUMPI PUSH1 0x0 DUP1 REVERT JUMPDEST POP PUSH1 0x0 DUP1 SLOAD PUSH1 0x1 PUSH1 0x1 PUSH1 0xA0 SHL SUB NOT AND CALLER OR SWAP1 SSTORE PUSH2 0xC86 DUP1 PUSH2 0x44 PUSH1 0x0 CODECOPY PUSH1 0x0 RETURN INVALID PUSH1 0x80 PUSH1 0x40 MSTORE CALLVALUE DUP1 ISZERO PUSH2 0x10 JUMPI PUSH1 0x0 DUP1 REVERT JUMPDEST POP PUSH1 0x4 CALLDATASIZE LT PUSH2 0xA9 JUMPI PUSH1 0x0 CALLDATALOAD PUSH1 0xE0 SHR DUP1 PUSH4 0x6817031B GT PUSH2 0x71 JUMPI DUP1 PUSH4 0x6817031B EQ PUSH2 0x17C JUMPI DUP1 PUSH4 0x8DA5CB5B EQ PUSH2 0x18F JUMPI DUP1 PUSH4 0xB53A334F EQ PUSH2 0x1BA JUMPI DUP1 PUSH4 0xB5BF1A39 EQ PUSH2 0x1CD JUMPI DUP1 PUSH4 0xDD4CA133 EQ PUSH2 0x1E0 JUMPI DUP1 PUSH4 0xFBFA77CF EQ PUSH2 0x23F JUMPI PUSH1 0x0 DUP1 REVERT JUMPDEST DUP1 PUSH4 0x1F852EF6 EQ PUSH2 0xAE JUMPI DUP1 PUSH4 0x37C77A15 EQ PUSH2 0x10D JUMPI DUP1 PUSH4 0x39A1AB50 EQ PUSH2 0x12E JUMPI DUP1 PUSH4 0x4718FEC9 EQ PUSH2 0x143 JUMPI DUP1 PUSH4 0x4C0B305B EQ PUSH2 0x156 JUMPI JUMPDEST PUSH1 0x0 DUP1 REVERT JUMPDEST PUSH2 0xC1 PUSH2 0xBC CALLDATASIZE PUSH1 0x4 PUSH2 0xA68 JUMP JUMPDEST PUSH2 0x252 JUMP JUMPDEST PUSH1 0x40 MLOAD PUSH2 0x104 SWAP2 SWAP1 DUP2 MLOAD PUSH1 0x1 PUSH1 0x1 PUSH1 0xA0 SHL SUB SWAP1 DUP2 AND DUP3 MSTORE PUSH1 0x20 DUP1 DUP5 ADD MLOAD DUP3 AND SWAP1 DUP4 ADD MSTORE PUSH1 0x40 DUP1 DUP5 ADD MLOAD DUP3 AND SWAP1 DUP4 ADD MSTORE PUSH1 0x60 SWAP3 DUP4 ADD MLOAD AND SWAP2 DUP2 ADD SWAP2 SWAP1 SWAP2 MSTORE PUSH1 0x80 ADD SWAP1 JUMP JUMPDEST PUSH1 0x40 MLOAD DUP1 SWAP2 SUB SWAP1 RETURN JUMPDEST PUSH2 0x120 PUSH2 0x11B CALLDATASIZE PUSH1 0x4 PUSH2 0xB11 JUMP JUMPDEST PUSH2 0x2F5 JUMP JUMPDEST PUSH1 0x40 MLOAD SWAP1 DUP2 MSTORE PUSH1 0x20 ADD PUSH2 0x104 JUMP JUMPDEST PUSH2 0x141 PUSH2 0x13C CALLDATASIZE PUSH1 0x4 PUSH2 0xA46 JUMP JUMPDEST PUSH2 0x361 JUMP JUMPDEST STOP JUMPDEST PUSH2 0x141 PUSH2 0x151 CALLDATASIZE PUSH1 0x4 PUSH2 0xACC JUMP JUMPDEST PUSH2 0x3F0 JUMP JUMPDEST PUSH1 0x2 SLOAD PUSH2 0x16A SWAP1 PUSH1 0x1 PUSH1 0xA0 SHL SWAP1 DIV PUSH1 0xFF AND DUP2 JUMP JUMPDEST PUSH1 0x40 MLOAD PUSH1 0xFF SWAP1 SWAP2 AND DUP2 MSTORE PUSH1 0x20 ADD PUSH2 0x104 JUMP JUMPDEST PUSH2 0x141 PUSH2 0x18A CALLDATASIZE PUSH1 0x4 PUSH2 0xA46 JUMP JUMPDEST PUSH2 0x681 JUMP JUMPDEST PUSH1 0x0 SLOAD PUSH2 0x1A2 SWAP1 PUSH1 0x1 PUSH1 0x1 PUSH1 0xA0 SHL SUB AND DUP2 JUMP JUMPDEST PUSH1 0x40 MLOAD PUSH1 0x1 PUSH1 0x1 PUSH1 0xA0 SHL SUB SWAP1 SWAP2 AND DUP2 MSTORE PUSH1 0x20 ADD PUSH2 0x104 JUMP JUMPDEST PUSH2 0x141 PUSH2 0x1C8 CALLDATASIZE PUSH1 0x4 PUSH2 0xA85 JUMP JUMPDEST PUSH2 0x707 JUMP JUMPDEST PUSH1 0x1 SLOAD PUSH2 0x1A2 SWAP1 PUSH1 0x1 PUSH1 0x1 PUSH1 0xA0 SHL SUB AND DUP2 JUMP JUMPDEST PUSH2 0x1F3 PUSH2 0x1EE CALLDATASIZE PUSH1 0x4 PUSH2 0xA68 JUMP JUMPDEST PUSH2 0x96E JUMP JUMPDEST PUSH1 0x40 MLOAD PUSH2 0x104 SWAP2 SWAP1 PUSH1 0x0 PUSH1 0xC0 DUP3 ADD SWAP1 POP DUP3 MLOAD DUP3 MSTORE PUSH1 0x20 DUP4 ADD MLOAD PUSH1 0x20 DUP4 ADD MSTORE PUSH1 0x40 DUP4 ADD MLOAD PUSH1 0x40 DUP4 ADD MSTORE PUSH1 0x60 DUP4 ADD MLOAD PUSH1 0x60 DUP4 ADD MSTORE PUSH1 0x80 DUP4 ADD MLOAD PUSH1 0x80 DUP4 ADD MSTORE PUSH1 0xA0 DUP4 ADD MLOAD PUSH1 0xA0 DUP4 ADD MSTORE SWAP3 SWAP2 POP POP JUMP JUMPDEST PUSH1 0x2 SLOAD PUSH2 0x1A2 SWAP1 PUSH1 0x1 PUSH1 0x1 PUSH1 0xA0 SHL SUB AND DUP2 JUMP JUMPDEST PUSH1 0x40 DUP1 MLOAD PUSH1 0x80 DUP2 ADD DUP3 MSTORE PUSH1 0x0 DUP1 DUP3 MSTORE PUSH1 0x20 DUP3 ADD DUP2 SWAP1 MSTORE SWAP2 DUP2 ADD DUP3 SWAP1 MSTORE PUSH1 0x60 DUP2 ADD SWAP2 SWAP1 SWAP2 MSTORE PUSH1 0x5 PUSH1 0x0 DUP4 PUSH1 0x3 DUP2 GT ISZERO PUSH2 0x28C JUMPI PUSH2 0x28C PUSH2 0xC2A JUMP JUMPDEST PUSH1 0x3 DUP2 GT ISZERO PUSH2 0x29D JUMPI PUSH2 0x29D PUSH2 0xC2A JUMP JUMPDEST DUP2 MSTORE PUSH1 0x20 DUP1 DUP3 ADD SWAP3 SWAP1 SWAP3 MSTORE PUSH1 0x40 SWAP1 DUP2 ADD PUSH1 0x0 KECCAK256 DUP2 MLOAD PUSH1 0x80 DUP2 ADD DUP4 MSTORE DUP2 SLOAD PUSH1 0x1 PUSH1 0x1 PUSH1 0xA0 SHL SUB SWAP1 DUP2 AND DUP3 MSTORE PUSH1 0x1 DUP4 ADD SLOAD DUP2 AND SWAP5 DUP3 ADD SWAP5 SWAP1 SWAP5 MSTORE PUSH1 0x2 DUP3 ADD SLOAD DUP5 AND SWAP3 DUP2 ADD SWAP3 SWAP1 SWAP3 MSTORE PUSH1 0x3 ADD SLOAD SWAP1 SWAP2 AND PUSH1 0x60 DUP3 ADD MSTORE SWAP3 SWAP2 POP POP JUMP JUMPDEST PUSH1 0x4 SLOAD PUSH1 0x80 DUP3 ADD MLOAD PUSH1 0xA0 DUP4 ADD MLOAD PUSH1 0x40 DUP5 ADD MLOAD PUSH1 0x20 DUP6 ADD MLOAD DUP6 MLOAD PUSH1 0x0 SWAP6 PUSH4 0xFFFFFFFF AND SWAP5 SWAP4 SWAP3 PUSH1 0x3 SWAP3 SWAP1 SWAP2 PUSH2 0x329 SWAP2 SWAP1 PUSH2 0xBC6 JUMP JUMPDEST PUSH2 0x333 SWAP2 SWAP1 PUSH2 0xBC6 JUMP JUMPDEST PUSH2 0x33D SWAP2 SWAP1 PUSH2 0xBEC JUMP JUMPDEST PUSH2 0x347 SWAP2 SWAP1 PUSH2 0xBC6 JUMP JUMPDEST PUSH2 0x351 SWAP2 SWAP1 PUSH2 0xBC6 JUMP JUMPDEST PUSH2 0x35B SWAP2 SWAP1 PUSH2 0xC00 JUMP JUMPDEST SWAP3 SWAP2 POP POP JUMP JUMPDEST PUSH1 0x0 SLOAD PUSH1 0x1 PUSH1 0x1 PUSH1 0xA0 SHL SUB AND CALLER EQ PUSH2 0x394 JUMPI PUSH1 0x40 MLOAD PUSH3 0x461BCD PUSH1 0xE5 SHL DUP2 MSTORE PUSH1 0x4 ADD PUSH2 0x38B SWAP1 PUSH2 0xB99 JUMP JUMPDEST PUSH1 0x40 MLOAD DUP1 SWAP2 SUB SWAP1 REVERT JUMPDEST PUSH1 0x1 SLOAD PUSH1 0x40 MLOAD PUSH1 0x1 PUSH1 0x1 PUSH1 0xA0 SHL SUB DUP1 DUP5 AND SWAP3 AND SWAP1 PUSH32 0xE78457E126ABDDD8E6C2133B10B1142D9DD87D0BE90778D310E1EC34DE516C81 SWAP1 PUSH1 0x0 SWAP1 LOG3 PUSH1 0x1 DUP1 SLOAD PUSH1 0x1 PUSH1 0x1 PUSH1 0xA0 SHL SUB NOT AND PUSH1 0x1 PUSH1 0x1 PUSH1 0xA0 SHL SUB SWAP3 SWAP1 SWAP3 AND SWAP2 SWAP1 SWAP2 OR SWAP1 SSTORE JUMP JUMPDEST PUSH1 0x0 SLOAD PUSH1 0x1 PUSH1 0x1 PUSH1 0xA0 SHL SUB AND CALLER EQ PUSH2 0x41A JUMPI PUSH1 0x40 MLOAD PUSH3 0x461BCD PUSH1 0xE5 SHL DUP2 MSTORE PUSH1 0x4 ADD PUSH2 0x38B SWAP1 PUSH2 0xB99 JUMP JUMPDEST PUSH1 0x0 DUP3 PUSH1 0x5 DUP2 GT ISZERO PUSH2 0x42E JUMPI PUSH2 0x42E PUSH2 0xC2A JUMP JUMPDEST EQ ISZERO PUSH2 0x472 JUMPI DUP1 PUSH1 0x6 PUSH1 0x0 DUP6 PUSH1 0x3 DUP2 GT ISZERO PUSH2 0x44B JUMPI PUSH2 0x44B PUSH2 0xC2A JUMP JUMPDEST PUSH1 0x3 DUP2 GT ISZERO PUSH2 0x45C JUMPI PUSH2 0x45C PUSH2 0xC2A JUMP JUMPDEST DUP2 MSTORE PUSH1 0x20 DUP2 ADD SWAP2 SWAP1 SWAP2 MSTORE PUSH1 0x40 ADD PUSH1 0x0 KECCAK256 SSTORE POP POP POP JUMP JUMPDEST PUSH1 0x1 DUP3 PUSH1 0x5 DUP2 GT ISZERO PUSH2 0x486 JUMPI PUSH2 0x486 PUSH2 0xC2A JUMP JUMPDEST EQ ISZERO PUSH2 0x4CD JUMPI DUP1 PUSH1 0x6 PUSH1 0x0 DUP6 PUSH1 0x3 DUP2 GT ISZERO PUSH2 0x4A3 JUMPI PUSH2 0x4A3 PUSH2 0xC2A JUMP JUMPDEST PUSH1 0x3 DUP2 GT ISZERO PUSH2 0x4B4 JUMPI PUSH2 0x4B4 PUSH2 0xC2A JUMP JUMPDEST DUP2 MSTORE PUSH1 0x20 DUP2 ADD SWAP2 SWAP1 SWAP2 MSTORE PUSH1 0x40 ADD PUSH1 0x0 KECCAK256 PUSH1 0x1 ADD SSTORE POP POP POP JUMP JUMPDEST PUSH1 0x2 DUP3 PUSH1 0x5 DUP2 GT ISZERO PUSH2 0x4E1 JUMPI PUSH2 0x4E1 PUSH2 0xC2A JUMP JUMPDEST EQ ISZERO PUSH2 0x528 JUMPI DUP1 PUSH1 0x6 PUSH1 0x0 DUP6 PUSH1 0x3 DUP2 GT ISZERO PUSH2 0x4FE JUMPI PUSH2 0x4FE PUSH2 0xC2A JUMP JUMPDEST PUSH1 0x3 DUP2 GT ISZERO PUSH2 0x50F JUMPI PUSH2 0x50F PUSH2 0xC2A JUMP JUMPDEST DUP2 MSTORE PUSH1 0x20 DUP2 ADD SWAP2 SWAP1 SWAP2 MSTORE PUSH1 0x40 ADD PUSH1 0x0 KECCAK256 PUSH1 0x2 ADD SSTORE POP POP POP JUMP JUMPDEST PUSH1 0x3 DUP3 PUSH1 0x5 DUP2 GT ISZERO PUSH2 0x53C JUMPI PUSH2 0x53C PUSH2 0xC2A JUMP JUMPDEST EQ ISZERO PUSH2 0x583 JUMPI DUP1 PUSH1 0x6 PUSH1 0x0 DUP6 PUSH1 0x3 DUP2 GT ISZERO PUSH2 0x559 JUMPI PUSH2 0x559 PUSH2 0xC2A JUMP JUMPDEST PUSH1 0x3 DUP2 GT ISZERO PUSH2 0x56A JUMPI PUSH2 0x56A PUSH2 0xC2A JUMP JUMPDEST DUP2 MSTORE PUSH1 0x20 DUP2 ADD SWAP2 SWAP1 SWAP2 MSTORE PUSH1 0x40 ADD PUSH1 0x0 KECCAK256 PUSH1 0x3 ADD SSTORE POP POP POP JUMP JUMPDEST PUSH1 0x4 DUP3 PUSH1 0x5 DUP2 GT ISZERO PUSH2 0x597 JUMPI PUSH2 0x597 PUSH2 0xC2A JUMP JUMPDEST EQ ISZERO PUSH2 0x5DE JUMPI DUP1 PUSH1 0x6 PUSH1 0x0 DUP6 PUSH1 0x3 DUP2 GT ISZERO PUSH2 0x5B4 JUMPI PUSH2 0x5B4 PUSH2 0xC2A JUMP JUMPDEST PUSH1 0x3 DUP2 GT ISZERO PUSH2 0x5C5 JUMPI PUSH2 0x5C5 PUSH2 0xC2A JUMP JUMPDEST DUP2 MSTORE PUSH1 0x20 DUP2 ADD SWAP2 SWAP1 SWAP2 MSTORE PUSH1 0x40 ADD PUSH1 0x0 KECCAK256 PUSH1 0x4 ADD SSTORE POP POP POP JUMP JUMPDEST PUSH1 0x5 DUP3 PUSH1 0x5 DUP2 GT ISZERO PUSH2 0x5F2 JUMPI PUSH2 0x5F2 PUSH2 0xC2A JUMP JUMPDEST EQ ISZERO PUSH2 0x639 JUMPI DUP1 PUSH1 0x6 PUSH1 0x0 DUP6 PUSH1 0x3 DUP2 GT ISZERO PUSH2 0x60F JUMPI PUSH2 0x60F PUSH2 0xC2A JUMP JUMPDEST PUSH1 0x3 DUP2 GT ISZERO PUSH2 0x620 JUMPI PUSH2 0x620 PUSH2 0xC2A JUMP JUMPDEST DUP2 MSTORE PUSH1 0x20 DUP2 ADD SWAP2 SWAP1 SWAP2 MSTORE PUSH1 0x40 ADD PUSH1 0x0 KECCAK256 PUSH1 0x5 ADD SSTORE POP POP POP JUMP JUMPDEST PUSH1 0x40 MLOAD PUSH3 0x461BCD PUSH1 0xE5 SHL DUP2 MSTORE PUSH1 0x20 PUSH1 0x4 DUP3 ADD MSTORE PUSH1 0x1B PUSH1 0x24 DUP3 ADD MSTORE PUSH32 0x536B696C6C206973204E6F742059657420537570706F72746564210000000000 PUSH1 0x44 DUP3 ADD MSTORE PUSH1 0x64 ADD PUSH2 0x38B JUMP JUMPDEST PUSH1 0x0 SLOAD PUSH1 0x1 PUSH1 0x1 PUSH1 0xA0 SHL SUB AND CALLER EQ PUSH2 0x6AB JUMPI PUSH1 0x40 MLOAD PUSH3 0x461BCD PUSH1 0xE5 SHL DUP2 MSTORE PUSH1 0x4 ADD PUSH2 0x38B SWAP1 PUSH2 0xB99 JUMP JUMPDEST PUSH1 0x2 SLOAD PUSH1 0x40 MLOAD PUSH1 0x1 PUSH1 0x1 PUSH1 0xA0 SHL SUB DUP1 DUP5 AND SWAP3 AND SWAP1 PUSH32 0x8800DEB8C31293B539EAF5391FCC88280DC58F015C043D65DD5B72A0979A1DD1 SWAP1 PUSH1 0x0 SWAP1 LOG3 PUSH1 0x2 DUP1 SLOAD PUSH1 0x1 PUSH1 0x1 PUSH1 0xA0 SHL SUB NOT AND PUSH1 0x1 PUSH1 0x1 PUSH1 0xA0 SHL SUB SWAP3 SWAP1 SWAP3 AND SWAP2 SWAP1 SWAP2 OR SWAP1 SSTORE JUMP JUMPDEST PUSH1 0x0 SLOAD PUSH1 0x1 PUSH1 0x1 PUSH1 0xA0 SHL SUB AND CALLER EQ PUSH2 0x731 JUMPI PUSH1 0x40 MLOAD PUSH3 0x461BCD PUSH1 0xE5 SHL DUP2 MSTORE PUSH1 0x4 ADD PUSH2 0x38B SWAP1 PUSH2 0xB99 JUMP JUMPDEST PUSH1 0x0 DUP3 PUSH1 0x3 DUP2 GT ISZERO PUSH2 0x745 JUMPI PUSH2 0x745 PUSH2 0xC2A JUMP JUMPDEST EQ ISZERO PUSH2 0x7A6 JUMPI DUP1 PUSH1 0x5 PUSH1 0x0 DUP6 PUSH1 0x3 DUP2 GT ISZERO PUSH2 0x762 JUMPI PUSH2 0x762 PUSH2 0xC2A JUMP JUMPDEST PUSH1 0x3 DUP2 GT ISZERO PUSH2 0x773 JUMPI PUSH2 0x773 PUSH2 0xC2A JUMP JUMPDEST DUP2 MSTORE PUSH1 0x20 DUP2 ADD SWAP2 SWAP1 SWAP2 MSTORE PUSH1 0x40 ADD PUSH1 0x0 KECCAK256 DUP1 SLOAD PUSH1 0x1 PUSH1 0x1 PUSH1 0xA0 SHL SUB NOT AND PUSH1 0x1 PUSH1 0x1 PUSH1 0xA0 SHL SUB SWAP3 SWAP1 SWAP3 AND SWAP2 SWAP1 SWAP2 OR SWAP1 SSTORE POP POP POP JUMP JUMPDEST PUSH1 0x1 DUP3 PUSH1 0x3 DUP2 GT ISZERO PUSH2 0x7BA JUMPI PUSH2 0x7BA PUSH2 0xC2A JUMP JUMPDEST EQ ISZERO PUSH2 0x822 JUMPI DUP1 PUSH1 0x5 PUSH1 0x0 DUP6 PUSH1 0x3 DUP2 GT ISZERO PUSH2 0x7D7 JUMPI PUSH2 0x7D7 PUSH2 0xC2A JUMP JUMPDEST PUSH1 0x3 DUP2 GT ISZERO PUSH2 0x7E8 JUMPI PUSH2 0x7E8 PUSH2 0xC2A JUMP JUMPDEST DUP2 MSTORE PUSH1 0x20 ADD SWAP1 DUP2 MSTORE PUSH1 0x20 ADD PUSH1 0x0 KECCAK256 PUSH1 0x1 ADD PUSH1 0x0 PUSH2 0x100 EXP DUP2 SLOAD DUP2 PUSH1 0x1 PUSH1 0x1 PUSH1 0xA0 SHL SUB MUL NOT AND SWAP1 DUP4 PUSH1 0x1 PUSH1 0x1 PUSH1 0xA0 SHL SUB AND MUL OR SWAP1 SSTORE POP POP POP POP JUMP JUMPDEST PUSH1 0x2 DUP3 PUSH1 0x3 DUP2 GT ISZERO PUSH2 0x836 JUMPI PUSH2 0x836 PUSH2 0xC2A JUMP JUMPDEST EQ ISZERO PUSH2 0x89E JUMPI DUP1 PUSH1 0x5 PUSH1 0x0 DUP6 PUSH1 0x3 DUP2 GT ISZERO PUSH2 0x853 JUMPI PUSH2 0x853 PUSH2 0xC2A JUMP JUMPDEST PUSH1 0x3 DUP2 GT ISZERO PUSH2 0x864 JUMPI PUSH2 0x864 PUSH2 0xC2A JUMP JUMPDEST DUP2 MSTORE PUSH1 0x20 ADD SWAP1 DUP2 MSTORE PUSH1 0x20 ADD PUSH1 0x0 KECCAK256 PUSH1 0x2 ADD PUSH1 0x0 PUSH2 0x100 EXP DUP2 SLOAD DUP2 PUSH1 0x1 PUSH1 0x1 PUSH1 0xA0 SHL SUB MUL NOT AND SWAP1 DUP4 PUSH1 0x1 PUSH1 0x1 PUSH1 0xA0 SHL SUB AND MUL OR SWAP1 SSTORE POP POP POP POP JUMP JUMPDEST PUSH1 0x3 DUP3 PUSH1 0x3 DUP2 GT ISZERO PUSH2 0x8B2 JUMPI PUSH2 0x8B2 PUSH2 0xC2A JUMP JUMPDEST EQ ISZERO PUSH2 0x91A JUMPI DUP1 PUSH1 0x5 PUSH1 0x0 DUP6 PUSH1 0x3 DUP2 GT ISZERO PUSH2 0x8CF JUMPI PUSH2 0x8CF PUSH2 0xC2A JUMP JUMPDEST PUSH1 0x3 DUP2 GT ISZERO PUSH2 0x8E0 JUMPI PUSH2 0x8E0 PUSH2 0xC2A JUMP JUMPDEST DUP2 MSTORE PUSH1 0x20 ADD SWAP1 DUP2 MSTORE PUSH1 0x20 ADD PUSH1 0x0 KECCAK256 PUSH1 0x3 ADD PUSH1 0x0 PUSH2 0x100 EXP DUP2 SLOAD DUP2 PUSH1 0x1 PUSH1 0x1 PUSH1 0xA0 SHL SUB MUL NOT AND SWAP1 DUP4 PUSH1 0x1 PUSH1 0x1 PUSH1 0xA0 SHL SUB AND MUL OR SWAP1 SSTORE POP POP POP POP JUMP JUMPDEST PUSH1 0x40 MLOAD PUSH3 0x461BCD PUSH1 0xE5 SHL DUP2 MSTORE PUSH1 0x20 PUSH1 0x4 DUP3 ADD MSTORE PUSH1 0x24 DUP1 DUP3 ADD MSTORE PUSH32 0x45717569706D656E7420536C6F74206973204E6F742059657420537570706F72 PUSH1 0x44 DUP3 ADD MSTORE PUSH4 0x74656421 PUSH1 0xE0 SHL PUSH1 0x64 DUP3 ADD MSTORE PUSH1 0x84 ADD PUSH2 0x38B JUMP JUMPDEST PUSH2 0x9A7 PUSH1 0x40 MLOAD DUP1 PUSH1 0xC0 ADD PUSH1 0x40 MSTORE DUP1 PUSH1 0x0 DUP2 MSTORE PUSH1 0x20 ADD PUSH1 0x0 DUP2 MSTORE PUSH1 0x20 ADD PUSH1 0x0 DUP2 MSTORE PUSH1 0x20 ADD PUSH1 0x0 DUP2 MSTORE PUSH1 0x20 ADD PUSH1 0x0 DUP2 MSTORE PUSH1 0x20 ADD PUSH1 0x0 DUP2 MSTORE POP SWAP1 JUMP JUMPDEST PUSH1 0x6 PUSH1 0x0 DUP4 PUSH1 0x3 DUP2 GT ISZERO PUSH2 0x9BD JUMPI PUSH2 0x9BD PUSH2 0xC2A JUMP JUMPDEST PUSH1 0x3 DUP2 GT ISZERO PUSH2 0x9CE JUMPI PUSH2 0x9CE PUSH2 0xC2A JUMP JUMPDEST DUP2 MSTORE PUSH1 0x20 ADD SWAP1 DUP2 MSTORE PUSH1 0x20 ADD PUSH1 0x0 KECCAK256 PUSH1 0x40 MLOAD DUP1 PUSH1 0xC0 ADD PUSH1 0x40 MSTORE SWAP1 DUP2 PUSH1 0x0 DUP3 ADD SLOAD DUP2 MSTORE PUSH1 0x20 ADD PUSH1 0x1 DUP3 ADD SLOAD DUP2 MSTORE PUSH1 0x20 ADD PUSH1 0x2 DUP3 ADD SLOAD DUP2 MSTORE PUSH1 0x20 ADD PUSH1 0x3 DUP3 ADD SLOAD DUP2 MSTORE PUSH1 0x20 ADD PUSH1 0x4 DUP3 ADD SLOAD DUP2 MSTORE PUSH1 0x20 ADD PUSH1 0x5 DUP3 ADD SLOAD DUP2 MSTORE POP POP SWAP1 POP SWAP2 SWAP1 POP JUMP JUMPDEST DUP1 CALLDATALOAD PUSH1 0x1 PUSH1 0x1 PUSH1 0xA0 SHL SUB DUP2 AND DUP2 EQ PUSH2 0xA41 JUMPI PUSH1 0x0 DUP1 REVERT JUMPDEST SWAP2 SWAP1 POP JUMP JUMPDEST PUSH1 0x0 PUSH1 0x20 DUP3 DUP5 SUB SLT ISZERO PUSH2 0xA58 JUMPI PUSH1 0x0 DUP1 REVERT JUMPDEST PUSH2 0xA61 DUP3 PUSH2 0xA2A JUMP JUMPDEST SWAP4 SWAP3 POP POP POP JUMP JUMPDEST PUSH1 0x0 PUSH1 0x20 DUP3 DUP5 SUB SLT ISZERO PUSH2 0xA7A JUMPI PUSH1 0x0 DUP1 REVERT JUMPDEST DUP2 CALLDATALOAD PUSH2 0xA61 DUP2 PUSH2 0xC40 JUMP JUMPDEST PUSH1 0x0 DUP1 PUSH1 0x0 PUSH1 0x60 DUP5 DUP7 SUB SLT ISZERO PUSH2 0xA9A JUMPI PUSH1 0x0 DUP1 REVERT JUMPDEST DUP4 CALLDATALOAD PUSH2 0xAA5 DUP2 PUSH2 0xC40 JUMP JUMPDEST SWAP3 POP PUSH1 0x20 DUP5 ADD CALLDATALOAD PUSH2 0xAB5 DUP2 PUSH2 0xC40 JUMP JUMPDEST SWAP2 POP PUSH2 0xAC3 PUSH1 0x40 DUP6 ADD PUSH2 0xA2A JUMP JUMPDEST SWAP1 POP SWAP3 POP SWAP3 POP SWAP3 JUMP JUMPDEST PUSH1 0x0 DUP1 PUSH1 0x0 PUSH1 0x60 DUP5 DUP7 SUB SLT ISZERO PUSH2 0xAE1 JUMPI PUSH1 0x0 DUP1 REVERT JUMPDEST DUP4 CALLDATALOAD PUSH2 0xAEC DUP2 PUSH2 0xC40 JUMP JUMPDEST SWAP3 POP PUSH1 0x20 DUP5 ADD CALLDATALOAD PUSH1 0x6 DUP2 LT PUSH2 0xB00 JUMPI PUSH1 0x0 DUP1 REVERT JUMPDEST SWAP3 SWAP6 SWAP3 SWAP5 POP POP POP PUSH1 0x40 SWAP2 SWAP1 SWAP2 ADD CALLDATALOAD SWAP1 JUMP JUMPDEST PUSH1 0x0 PUSH1 0xC0 DUP3 DUP5 SUB SLT ISZERO PUSH2 0xB23 JUMPI PUSH1 0x0 DUP1 REVERT JUMPDEST PUSH1 0x40 MLOAD PUSH1 0xC0 DUP2 ADD DUP2 DUP2 LT PUSH8 0xFFFFFFFFFFFFFFFF DUP3 GT OR ISZERO PUSH2 0xB54 JUMPI PUSH4 0x4E487B71 PUSH1 0xE0 SHL PUSH1 0x0 MSTORE PUSH1 0x41 PUSH1 0x4 MSTORE PUSH1 0x24 PUSH1 0x0 REVERT JUMPDEST DUP1 PUSH1 0x40 MSTORE POP DUP3 CALLDATALOAD DUP2 MSTORE PUSH1 0x20 DUP4 ADD CALLDATALOAD PUSH1 0x20 DUP3 ADD MSTORE PUSH1 0x40 DUP4 ADD CALLDATALOAD PUSH1 0x40 DUP3 ADD MSTORE PUSH1 0x60 DUP4 ADD CALLDATALOAD PUSH1 0x60 DUP3 ADD MSTORE PUSH1 0x80 DUP4 ADD CALLDATALOAD PUSH1 0x80 DUP3 ADD MSTORE PUSH1 0xA0 DUP4 ADD CALLDATALOAD PUSH1 0xA0 DUP3 ADD MSTORE DUP1 SWAP2 POP POP SWAP3 SWAP2 POP POP JUMP JUMPDEST PUSH1 0x20 DUP1 DUP3 MSTORE PUSH1 0x13 SWAP1 DUP3 ADD MSTORE PUSH19 0x21B0B63632B91034B9903737BA1037BBB732B9 PUSH1 0x69 SHL PUSH1 0x40 DUP3 ADD MSTORE PUSH1 0x60 ADD SWAP1 JUMP JUMPDEST PUSH1 0x0 DUP3 NOT DUP3 GT ISZERO PUSH2 0xBE7 JUMPI PUSH4 0x4E487B71 PUSH1 0xE0 SHL PUSH1 0x0 MSTORE PUSH1 0x11 PUSH1 0x4 MSTORE PUSH1 0x24 PUSH1 0x0 REVERT JUMPDEST POP ADD SWAP1 JUMP JUMPDEST PUSH1 0x0 DUP3 PUSH2 0xBFB JUMPI PUSH2 0xBFB PUSH2 0xC14 JUMP JUMPDEST POP DIV SWAP1 JUMP JUMPDEST PUSH1 0x0 DUP3 PUSH2 0xC0F JUMPI PUSH2 0xC0F PUSH2 0xC14 JUMP JUMPDEST POP MOD SWAP1 JUMP JUMPDEST PUSH4 0x4E487B71 PUSH1 0xE0 SHL PUSH1 0x0 MSTORE PUSH1 0x12 PUSH1 0x4 MSTORE PUSH1 0x24 PUSH1 0x0 REVERT JUMPDEST PUSH4 0x4E487B71 PUSH1 0xE0 SHL PUSH1 0x0 MSTORE PUSH1 0x21 PUSH1 0x4 MSTORE PUSH1 0x24 PUSH1 0x0 REVERT JUMPDEST PUSH1 0x4 DUP2 LT PUSH2 0xC4D JUMPI PUSH1 0x0 DUP1 REVERT JUMPDEST POP JUMP INVALID LOG2 PUSH5 0x6970667358 0x22 SLT KECCAK256 ISZERO DUP5 BALANCE 0x2A 0xC2 0xB2 CALL 0xC6 CALLDATASIZE PUSH15 0xFCAC5E726C3571C6704A4F37EA58F8 SSTORE 0xD4 0xEF PUSH6 0x60B18764736F PUSH13 0x63430008070033000000000000 "
		},
		"gasEstimates": {
			"creation": {
				"codeDepositCost": "641200",
				"executionCost": "49135",
				"totalCost": "690335"
			},
			"external": {
				"blocksPerTick()": "2419",
				"getPlayerLevel((uint256,uint256,uint256,uint256,uint256,uint256))": "infinite",
				"getStarterEquipment(uint8)": "9314",
				"getStarterExperience(uint8)": "13646",
				"owner()": "2359",
				"setStarterItem(uint8,uint8,address)": "infinite",
				"setStarterSkill(uint8,uint8,uint256)": "25123",
				"setVault(address)": "30365",
				"setWarden(address)": "30410",
				"vault()": "2447",
				"warden()": "2403"
			}
		},
		"methodIdentifiers": {
			"blocksPerTick()": "4c0b305b",
			"getPlayerLevel((uint256,uint256,uint256,uint256,uint256,uint256))": "37c77a15",
			"getStarterEquipment(uint8)": "1f852ef6",
			"getStarterExperience(uint8)": "dd4ca133",
			"owner()": "8da5cb5b",
			"setStarterItem(uint8,uint8,address)": "b53a334f",
			"setStarterSkill(uint8,uint8,uint256)": "4718fec9",
			"setVault(address)": "6817031b",
			"setWarden(address)": "39a1ab50",
			"vault()": "fbfa77cf",
			"warden()": "b5bf1a39"
		}
	},
	"abi": [
		{
			"inputs": [],
			"stateMutability": "nonpayable",
			"type": "constructor"
		},
		{
			"anonymous": false,
			"inputs": [
				{
					"indexed": true,
					"internalType": "address",
					"name": "oldVault",
					"type": "address"
				},
				{
					"indexed": true,
					"internalType": "address",
					"name": "newVault",
					"type": "address"
				}
			],
			"name": "VaultSet",
			"type": "event"
		},
		{
			"anonymous": false,
			"inputs": [
				{
					"indexed": true,
					"internalType": "address",
					"name": "oldWarden",
					"type": "address"
				},
				{
					"indexed": true,
					"internalType": "address",
					"name": "newWarden",
					"type": "address"
				}
			],
			"name": "WardenSet",
			"type": "event"
		},
		{
			"inputs": [],
			"name": "blocksPerTick",
			"outputs": [
				{
					"internalType": "uint8",
					"name": "",
					"type": "uint8"
				}
			],
			"stateMutability": "view",
			"type": "function"
		},
		{
			"inputs": [
				{
					"components": [
						{
							"internalType": "uint256",
							"name": "strength",
							"type": "uint256"
						},
						{
							"internalType": "uint256",
							"name": "sorcery",
							"type": "uint256"
						},
						{
							"internalType": "uint256",
							"name": "archery",
							"type": "uint256"
						},
						{
							"internalType": "uint256",
							"name": "stamina",
							"type": "uint256"
						},
						{
							"internalType": "uint256",
							"name": "life",
							"type": "uint256"
						},
						{
							"internalType": "uint256",
							"name": "defense",
							"type": "uint256"
						}
					],
					"internalType": "struct Experience",
					"name": "_playerXp",
					"type": "tuple"
				}
			],
			"name": "getPlayerLevel",
			"outputs": [
				{
					"internalType": "uint256",
					"name": "",
					"type": "uint256"
				}
			],
			"stateMutability": "view",
			"type": "function"
		},
		{
			"inputs": [
				{
					"internalType": "enum StarterClass",
					"name": "starterClass",
					"type": "uint8"
				}
			],
			"name": "getStarterEquipment",
			"outputs": [
				{
					"components": [
						{
							"internalType": "address",
							"name": "helmet",
							"type": "address"
						},
						{
							"internalType": "address",
							"name": "armor",
							"type": "address"
						},
						{
							"internalType": "address",
							"name": "weapon",
							"type": "address"
						},
						{
							"internalType": "address",
							"name": "blessing",
							"type": "address"
						}
					],
					"internalType": "struct Equipment",
					"name": "",
					"type": "tuple"
				}
			],
			"stateMutability": "view",
			"type": "function"
		},
		{
			"inputs": [
				{
					"internalType": "enum StarterClass",
					"name": "starterClass",
					"type": "uint8"
				}
			],
			"name": "getStarterExperience",
			"outputs": [
				{
					"components": [
						{
							"internalType": "uint256",
							"name": "strength",
							"type": "uint256"
						},
						{
							"internalType": "uint256",
							"name": "sorcery",
							"type": "uint256"
						},
						{
							"internalType": "uint256",
							"name": "archery",
							"type": "uint256"
						},
						{
							"internalType": "uint256",
							"name": "stamina",
							"type": "uint256"
						},
						{
							"internalType": "uint256",
							"name": "life",
							"type": "uint256"
						},
						{
							"internalType": "uint256",
							"name": "defense",
							"type": "uint256"
						}
					],
					"internalType": "struct Experience",
					"name": "",
					"type": "tuple"
				}
			],
			"stateMutability": "view",
			"type": "function"
		},
		{
			"inputs": [],
			"name": "owner",
			"outputs": [
				{
					"internalType": "address",
					"name": "",
					"type": "address"
				}
			],
			"stateMutability": "view",
			"type": "function"
		},
		{
			"inputs": [
				{
					"internalType": "enum StarterClass",
					"name": "starterClass",
					"type": "uint8"
				},
				{
					"internalType": "enum EquipmentSlot",
					"name": "equipmentSlot",
					"type": "uint8"
				},
				{
					"internalType": "address",
					"name": "newItem",
					"type": "address"
				}
			],
			"name": "setStarterItem",
			"outputs": [],
			"stateMutability": "nonpayable",
			"type": "function"
		},
		{
			"inputs": [
				{
					"internalType": "enum StarterClass",
					"name": "starterClass",
					"type": "uint8"
				},
				{
					"internalType": "enum Skill",
					"name": "skill",
					"type": "uint8"
				},
				{
					"internalType": "uint256",
					"name": "skillXp",
					"type": "uint256"
				}
			],
			"name": "setStarterSkill",
			"outputs": [],
			"stateMutability": "nonpayable",
			"type": "function"
		},
		{
			"inputs": [
				{
					"internalType": "address",
					"name": "_newVault",
					"type": "address"
				}
			],
			"name": "setVault",
			"outputs": [],
			"stateMutability": "nonpayable",
			"type": "function"
		},
		{
			"inputs": [
				{
					"internalType": "address",
					"name": "newWarden",
					"type": "address"
				}
			],
			"name": "setWarden",
			"outputs": [],
			"stateMutability": "nonpayable",
			"type": "function"
		},
		{
			"inputs": [],
			"name": "vault",
			"outputs": [
				{
					"internalType": "address",
					"name": "",
					"type": "address"
				}
			],
			"stateMutability": "view",
			"type": "function"
		},
		{
			"inputs": [],
			"name": "warden",
			"outputs": [
				{
					"internalType": "address",
					"name": "",
					"type": "address"
				}
			],
			"stateMutability": "view",
			"type": "function"
		}
	]
}